{
  "contractName": "PixelGrid",
  "abi": [
    {
      "constant": true,
      "inputs": [],
      "name": "maxWidth",
      "outputs": [
        {
          "name": "",
          "type": "uint256"
        }
      ],
      "payable": false,
      "stateMutability": "view",
      "type": "function"
    },
    {
      "constant": true,
      "inputs": [],
      "name": "maxHeight",
      "outputs": [
        {
          "name": "",
          "type": "uint256"
        }
      ],
      "payable": false,
      "stateMutability": "view",
      "type": "function"
    },
    {
      "constant": true,
      "inputs": [
        {
          "name": "",
          "type": "uint256"
        }
      ],
      "name": "pixels",
      "outputs": [
        {
          "name": "id",
          "type": "uint256"
        },
        {
          "name": "x",
          "type": "uint256"
        },
        {
          "name": "y",
          "type": "uint256"
        },
        {
          "name": "rgbColor",
          "type": "string"
        },
        {
          "name": "account",
          "type": "address"
        },
        {
          "name": "latestPrice",
          "type": "uint256"
        }
      ],
      "payable": false,
      "stateMutability": "view",
      "type": "function"
    },
    {
      "constant": true,
      "inputs": [],
      "name": "pixelsCount",
      "outputs": [
        {
          "name": "",
          "type": "uint256"
        }
      ],
      "payable": false,
      "stateMutability": "view",
      "type": "function"
    },
    {
      "inputs": [],
      "payable": false,
      "stateMutability": "nonpayable",
      "type": "constructor"
    },
    {
      "anonymous": false,
      "inputs": [],
      "name": "buyPixelEvent",
      "type": "event"
    },
    {
      "constant": false,
      "inputs": [
        {
          "name": "_x",
          "type": "uint256"
        },
        {
          "name": "_y",
          "type": "uint256"
        },
        {
          "name": "_rgbColor",
          "type": "string"
        },
        {
          "name": "_address",
          "type": "address"
        },
        {
          "name": "_latestPrice",
          "type": "uint256"
        }
      ],
      "name": "buyPixel",
      "outputs": [],
      "payable": false,
      "stateMutability": "nonpayable",
      "type": "function"
    }
  ],
  "bytecode": "0x60806040526032600055603260015534801561001a57600080fd5b506105be8061002a6000396000f3fe608060405234801561001057600080fd5b50600436106100575760003560e01c80630cf22acb1461005c5780636006ecc81461015557806363aa5ce2146101735780638da7f23214610191578063ba30f64414610287575b600080fd5b610153600480360360a081101561007257600080fd5b810190808035906020019092919080359060200190929190803590602001906401000000008111156100a357600080fd5b8201836020820111156100b557600080fd5b803590602001918460018302840111640100000000831117156100d757600080fd5b91908080601f016020809104026020016040519081016040528093929190818152602001838380828437600081840152601f19601f820116905080830192505050505050509192919290803573ffffffffffffffffffffffffffffffffffffffff169060200190929190803590602001909291905050506102a5565b005b61015d6102e5565b6040518082815260200191505060405180910390f35b61017b6102eb565b6040518082815260200191505060405180910390f35b6101bd600480360360208110156101a757600080fd5b81019080803590602001909291905050506102f1565b60405180878152602001868152602001858152602001806020018473ffffffffffffffffffffffffffffffffffffffff1673ffffffffffffffffffffffffffffffffffffffff168152602001838152602001828103825285818151815260200191508051906020019080838360005b8381101561024757808201518184015260208101905061022c565b50505050905090810190601f1680156102745780820380516001836020036101000a031916815260200191505b5097505050505050505060405180910390f35b61028f6103e5565b6040518082815260200191505060405180910390f35b6102b285858585856103eb565b7fb2e104e4cc334be33736a296e1626002c1ceda52120a2eddfc3dc3568f6759df60405160405180910390a15050505050565b60005481565b60015481565b6003602052806000526040600020600091509050806000015490806001015490806002015490806003018054600181600116156101000203166002900480601f0160208091040260200160405190810160405280929190818152602001828054600181600116156101000203166002900480156103af5780601f10610384576101008083540402835291602001916103af565b820191906000526020600020905b81548152906001019060200180831161039257829003601f168201915b5050505050908060040160009054906101000a900473ffffffffffffffffffffffffffffffffffffffff16908060050154905086565b60025481565b6002600081548092919060010191905055506040518060c0016040528060025481526020018681526020018581526020018481526020018373ffffffffffffffffffffffffffffffffffffffff1681526020018281525060036000600254815260200190815260200160002060008201518160000155602082015181600101556040820151816002015560608201518160030190805190602001906104919291906104ed565b5060808201518160040160006101000a81548173ffffffffffffffffffffffffffffffffffffffff021916908373ffffffffffffffffffffffffffffffffffffffff16021790555060a082015181600501559050505050505050565b828054600181600116156101000203166002900490600052602060002090601f016020900481019282601f1061052e57805160ff191683800117855561055c565b8280016001018555821561055c579182015b8281111561055b578251825591602001919060010190610540565b5b509050610569919061056d565b5090565b61058f91905b8082111561058b576000816000905550600101610573565b5090565b9056fea165627a7a7230582037462cf9dd3a53c55fc4d513a75a0df4bec1c108a2208b8212b84825be772f700029",
  "source": "pragma solidity ^0.5.7;\n\ncontract PixelGrid {\n\n    struct Pixel {\n        uint id;\n        uint x;\n        uint y;\n        string rgbColor;\n        address account;\n        uint latestPrice;\n    }\n\n    uint public maxWidth = 50;\n    uint public maxHeight = 50;\n\n    uint public pixelsCount;\n\n    mapping(uint => Pixel) public pixels;\n\n    constructor() public {\n    }\n\n    event buyPixelEvent();\n\n    function addPixel(uint _x, uint _y, string memory _rgbColor, address _address, uint _latestPrice) private {\n        pixelsCount++;\n        pixels[pixelsCount] = Pixel(\n            pixelsCount, _x, _y, _rgbColor,\n            _address,\n            _latestPrice\n        );\n    }\n\n    function buyPixel(uint _x, uint _y, string memory _rgbColor, address _address, uint _latestPrice) public {\n        addPixel(_x, _y, _rgbColor, _address, _latestPrice);\n        emit buyPixelEvent();\n    }\n}",
  "sourcePath": "/Users/danielsiles/Desktop/Backup/workspace/blockPixelReact/contracts/PixelGrid.sol",
  "compiler": {
    "name": "solc",
    "version": "0.5.8+commit.23d335f2.Emscripten.clang"
  },
  "schemaVersion": "3.0.11",
  "updatedAt": "2019-07-11T22:51:04.822Z",
  "devdoc": {
    "methods": {}
  },
  "userdoc": {
    "methods": {}
  }
}